{
  "_format": "hh3-artifact-1",
  "contractName": "CultureProof",
  "sourceName": "contracts/CultureProof.sol",
  "abi": [
    {
      "inputs": [],
      "stateMutability": "nonpayable",
      "type": "constructor"
    },
    {
      "inputs": [
        {
          "internalType": "address",
          "name": "sender",
          "type": "address"
        },
        {
          "internalType": "uint256",
          "name": "tokenId",
          "type": "uint256"
        },
        {
          "internalType": "address",
          "name": "owner",
          "type": "address"
        }
      ],
      "name": "ERC721IncorrectOwner",
      "type": "error"
    },
    {
      "inputs": [
        {
          "internalType": "address",
          "name": "operator",
          "type": "address"
        },
        {
          "internalType": "uint256",
          "name": "tokenId",
          "type": "uint256"
        }
      ],
      "name": "ERC721InsufficientApproval",
      "type": "error"
    },
    {
      "inputs": [
        {
          "internalType": "address",
          "name": "approver",
          "type": "address"
        }
      ],
      "name": "ERC721InvalidApprover",
      "type": "error"
    },
    {
      "inputs": [
        {
          "internalType": "address",
          "name": "operator",
          "type": "address"
        }
      ],
      "name": "ERC721InvalidOperator",
      "type": "error"
    },
    {
      "inputs": [
        {
          "internalType": "address",
          "name": "owner",
          "type": "address"
        }
      ],
      "name": "ERC721InvalidOwner",
      "type": "error"
    },
    {
      "inputs": [
        {
          "internalType": "address",
          "name": "receiver",
          "type": "address"
        }
      ],
      "name": "ERC721InvalidReceiver",
      "type": "error"
    },
    {
      "inputs": [
        {
          "internalType": "address",
          "name": "sender",
          "type": "address"
        }
      ],
      "name": "ERC721InvalidSender",
      "type": "error"
    },
    {
      "inputs": [
        {
          "internalType": "uint256",
          "name": "tokenId",
          "type": "uint256"
        }
      ],
      "name": "ERC721NonexistentToken",
      "type": "error"
    },
    {
      "inputs": [
        {
          "internalType": "address",
          "name": "owner",
          "type": "address"
        }
      ],
      "name": "OwnableInvalidOwner",
      "type": "error"
    },
    {
      "inputs": [
        {
          "internalType": "address",
          "name": "account",
          "type": "address"
        }
      ],
      "name": "OwnableUnauthorizedAccount",
      "type": "error"
    },
    {
      "anonymous": false,
      "inputs": [
        {
          "indexed": true,
          "internalType": "address",
          "name": "owner",
          "type": "address"
        },
        {
          "indexed": true,
          "internalType": "address",
          "name": "approved",
          "type": "address"
        },
        {
          "indexed": true,
          "internalType": "uint256",
          "name": "tokenId",
          "type": "uint256"
        }
      ],
      "name": "Approval",
      "type": "event"
    },
    {
      "anonymous": false,
      "inputs": [
        {
          "indexed": true,
          "internalType": "address",
          "name": "owner",
          "type": "address"
        },
        {
          "indexed": true,
          "internalType": "address",
          "name": "operator",
          "type": "address"
        },
        {
          "indexed": false,
          "internalType": "bool",
          "name": "approved",
          "type": "bool"
        }
      ],
      "name": "ApprovalForAll",
      "type": "event"
    },
    {
      "anonymous": false,
      "inputs": [
        {
          "indexed": true,
          "internalType": "address",
          "name": "previousOwner",
          "type": "address"
        },
        {
          "indexed": true,
          "internalType": "address",
          "name": "newOwner",
          "type": "address"
        }
      ],
      "name": "OwnershipTransferred",
      "type": "event"
    },
    {
      "anonymous": false,
      "inputs": [
        {
          "indexed": true,
          "internalType": "address",
          "name": "from",
          "type": "address"
        },
        {
          "indexed": true,
          "internalType": "address",
          "name": "to",
          "type": "address"
        },
        {
          "indexed": true,
          "internalType": "uint256",
          "name": "tokenId",
          "type": "uint256"
        }
      ],
      "name": "Transfer",
      "type": "event"
    },
    {
      "inputs": [
        {
          "internalType": "address",
          "name": "to",
          "type": "address"
        },
        {
          "internalType": "uint256",
          "name": "tokenId",
          "type": "uint256"
        }
      ],
      "name": "approve",
      "outputs": [],
      "stateMutability": "nonpayable",
      "type": "function"
    },
    {
      "inputs": [
        {
          "internalType": "address",
          "name": "owner",
          "type": "address"
        }
      ],
      "name": "balanceOf",
      "outputs": [
        {
          "internalType": "uint256",
          "name": "",
          "type": "uint256"
        }
      ],
      "stateMutability": "view",
      "type": "function"
    },
    {
      "inputs": [
        {
          "internalType": "uint256",
          "name": "tokenId",
          "type": "uint256"
        }
      ],
      "name": "getApproved",
      "outputs": [
        {
          "internalType": "address",
          "name": "",
          "type": "address"
        }
      ],
      "stateMutability": "view",
      "type": "function"
    },
    {
      "inputs": [
        {
          "internalType": "address",
          "name": "owner",
          "type": "address"
        },
        {
          "internalType": "address",
          "name": "operator",
          "type": "address"
        }
      ],
      "name": "isApprovedForAll",
      "outputs": [
        {
          "internalType": "bool",
          "name": "",
          "type": "bool"
        }
      ],
      "stateMutability": "view",
      "type": "function"
    },
    {
      "inputs": [
        {
          "internalType": "address",
          "name": "to",
          "type": "address"
        }
      ],
      "name": "mint",
      "outputs": [],
      "stateMutability": "nonpayable",
      "type": "function"
    },
    {
      "inputs": [],
      "name": "name",
      "outputs": [
        {
          "internalType": "string",
          "name": "",
          "type": "string"
        }
      ],
      "stateMutability": "view",
      "type": "function"
    },
    {
      "inputs": [],
      "name": "owner",
      "outputs": [
        {
          "internalType": "address",
          "name": "",
          "type": "address"
        }
      ],
      "stateMutability": "view",
      "type": "function"
    },
    {
      "inputs": [
        {
          "internalType": "uint256",
          "name": "tokenId",
          "type": "uint256"
        }
      ],
      "name": "ownerOf",
      "outputs": [
        {
          "internalType": "address",
          "name": "",
          "type": "address"
        }
      ],
      "stateMutability": "view",
      "type": "function"
    },
    {
      "inputs": [],
      "name": "renounceOwnership",
      "outputs": [],
      "stateMutability": "nonpayable",
      "type": "function"
    },
    {
      "inputs": [
        {
          "internalType": "address",
          "name": "from",
          "type": "address"
        },
        {
          "internalType": "address",
          "name": "to",
          "type": "address"
        },
        {
          "internalType": "uint256",
          "name": "tokenId",
          "type": "uint256"
        }
      ],
      "name": "safeTransferFrom",
      "outputs": [],
      "stateMutability": "nonpayable",
      "type": "function"
    },
    {
      "inputs": [
        {
          "internalType": "address",
          "name": "from",
          "type": "address"
        },
        {
          "internalType": "address",
          "name": "to",
          "type": "address"
        },
        {
          "internalType": "uint256",
          "name": "tokenId",
          "type": "uint256"
        },
        {
          "internalType": "bytes",
          "name": "data",
          "type": "bytes"
        }
      ],
      "name": "safeTransferFrom",
      "outputs": [],
      "stateMutability": "nonpayable",
      "type": "function"
    },
    {
      "inputs": [
        {
          "internalType": "address",
          "name": "operator",
          "type": "address"
        },
        {
          "internalType": "bool",
          "name": "approved",
          "type": "bool"
        }
      ],
      "name": "setApprovalForAll",
      "outputs": [],
      "stateMutability": "nonpayable",
      "type": "function"
    },
    {
      "inputs": [
        {
          "internalType": "bytes4",
          "name": "interfaceId",
          "type": "bytes4"
        }
      ],
      "name": "supportsInterface",
      "outputs": [
        {
          "internalType": "bool",
          "name": "",
          "type": "bool"
        }
      ],
      "stateMutability": "view",
      "type": "function"
    },
    {
      "inputs": [],
      "name": "symbol",
      "outputs": [
        {
          "internalType": "string",
          "name": "",
          "type": "string"
        }
      ],
      "stateMutability": "view",
      "type": "function"
    },
    {
      "inputs": [],
      "name": "tokenIdCounter",
      "outputs": [
        {
          "internalType": "uint256",
          "name": "",
          "type": "uint256"
        }
      ],
      "stateMutability": "view",
      "type": "function"
    },
    {
      "inputs": [
        {
          "internalType": "uint256",
          "name": "tokenId",
          "type": "uint256"
        }
      ],
      "name": "tokenURI",
      "outputs": [
        {
          "internalType": "string",
          "name": "",
          "type": "string"
        }
      ],
      "stateMutability": "view",
      "type": "function"
    },
    {
      "inputs": [
        {
          "internalType": "address",
          "name": "from",
          "type": "address"
        },
        {
          "internalType": "address",
          "name": "to",
          "type": "address"
        },
        {
          "internalType": "uint256",
          "name": "tokenId",
          "type": "uint256"
        }
      ],
      "name": "transferFrom",
      "outputs": [],
      "stateMutability": "nonpayable",
      "type": "function"
    },
    {
      "inputs": [
        {
          "internalType": "address",
          "name": "newOwner",
          "type": "address"
        }
      ],
      "name": "transferOwnership",
      "outputs": [],
      "stateMutability": "nonpayable",
      "type": "function"
    }
  ],
  "bytecode": "0x608060405234801562000010575f80fd5b50336040518060400160405280600d81526020016c21bab63a3ab93290283937b7b360991b81525060405180604001604052806003815260200162504f4360e81b815250815f9081620000649190620001a7565b506001620000738282620001a7565b5050506001600160a01b038116620000a457604051631e4fbdf760e01b81525f600482015260240160405180910390fd5b620000af81620000b6565b506200026f565b600680546001600160a01b038381166001600160a01b0319831681179093556040519116919082907f8be0079c531659141344cd1fd0a4f28419497f9722a3daafe3b4186f6b6457e0905f90a35050565b634e487b7160e01b5f52604160045260245ffd5b600181811c908216806200013057607f821691505b6020821081036200014f57634e487b7160e01b5f52602260045260245ffd5b50919050565b601f821115620001a2575f81815260208120601f850160051c810160208610156200017d5750805b601f850160051c820191505b818110156200019e5782815560010162000189565b5050505b505050565b81516001600160401b03811115620001c357620001c362000107565b620001db81620001d484546200011b565b8462000155565b602080601f83116001811462000211575f8415620001f95750858301515b5f19600386901b1c1916600185901b1785556200019e565b5f85815260208120601f198616915b82811015620002415788860151825594840194600190910190840162000220565b50858210156200025f57878501515f19600388901b60f8161c191681555b5050505050600190811b01905550565b61113f806200027d5f395ff3fe608060405234801561000f575f80fd5b5060043610610111575f3560e01c8063715018a61161009e578063a22cb4651161006e578063a22cb46514610229578063b88d4fde1461023c578063c87b56dd1461024f578063e985e9c514610262578063f2fde38b14610275575f80fd5b8063715018a6146101ff5780638da5cb5b1461020757806395d89b411461021857806398bdf6f514610220575f80fd5b806323b872dd116100e457806323b872dd1461019257806342842e0e146101a55780636352211e146101b85780636a627842146101cb57806370a08231146101de575f80fd5b806301ffc9a71461011557806306fdde031461013d578063081812fc14610152578063095ea7b31461017d575b5f80fd5b610128610123366004610daf565b610288565b60405190151581526020015b60405180910390f35b6101456102d9565b6040516101349190610e17565b610165610160366004610e29565b610368565b6040516001600160a01b039091168152602001610134565b61019061018b366004610e5b565b61038f565b005b6101906101a0366004610e83565b61039e565b6101906101b3366004610e83565b61042c565b6101656101c6366004610e29565b61044b565b6101906101d9366004610ebc565b610455565b6101f16101ec366004610ebc565b61047d565b604051908152602001610134565b6101906104c2565b6006546001600160a01b0316610165565b6101456104d5565b6101f160075481565b610190610237366004610ed5565b6104e4565b61019061024a366004610f22565b6104ef565b61014561025d366004610e29565b610507565b610128610270366004610ff7565b610578565b610190610283366004610ebc565b6105a5565b5f6001600160e01b031982166380ac58cd60e01b14806102b857506001600160e01b03198216635b5e139f60e01b145b806102d357506301ffc9a760e01b6001600160e01b03198316145b92915050565b60605f80546102e790611028565b80601f016020809104026020016040519081016040528092919081815260200182805461031390611028565b801561035e5780601f106103355761010080835404028352916020019161035e565b820191905f5260205f20905b81548152906001019060200180831161034157829003601f168201915b5050505050905090565b5f610372826105e2565b505f828152600460205260409020546001600160a01b03166102d3565b61039a82823361061a565b5050565b6001600160a01b0382166103cc57604051633250574960e11b81525f60048201526024015b60405180910390fd5b5f6103d8838333610627565b9050836001600160a01b0316816001600160a01b031614610426576040516364283d7b60e01b81526001600160a01b03808616600483015260248201849052821660448201526064016103c3565b50505050565b61044683838360405180602001604052805f8152506104ef565b505050565b5f6102d3826105e2565b61045d6106a0565b600780549081905f61046e83611060565b919050555061039a82826106cd565b5f6001600160a01b0382166104a7576040516322718ad960e21b81525f60048201526024016103c3565b506001600160a01b03165f9081526003602052604090205490565b6104ca6106a0565b6104d35f6106e6565b565b6060600180546102e790611028565b61039a338383610737565b6104fa84848461039e565b61042633858585856107d5565b6060610512826105e2565b505f61052860408051602081019091525f815290565b90505f8151116105465760405180602001604052805f815250610571565b80610550846108fd565b604051602001610561929190611084565b6040516020818303038152906040525b9392505050565b6001600160a01b039182165f90815260056020908152604080832093909416825291909152205460ff1690565b6105ad6106a0565b6001600160a01b0381166105d657604051631e4fbdf760e01b81525f60048201526024016103c3565b6105df816106e6565b50565b5f818152600260205260408120546001600160a01b0316806102d357604051637e27328960e01b8152600481018490526024016103c3565b610446838383600161098d565b5f828152600260205260408120546001600160a01b0316801561068c5760405162461bcd60e51b815260206004820152601b60248201527f536f756c626f756e643a207472616e7366657220626c6f636b6564000000000060448201526064016103c3565b610697858585610a91565b95945050505050565b6006546001600160a01b031633146104d35760405163118cdaa760e01b81523360048201526024016103c3565b61039a828260405180602001604052805f815250610b83565b600680546001600160a01b038381166001600160a01b0319831681179093556040519116919082907f8be0079c531659141344cd1fd0a4f28419497f9722a3daafe3b4186f6b6457e0905f90a35050565b6001600160a01b03821661076957604051630b61174360e31b81526001600160a01b03831660048201526024016103c3565b6001600160a01b038381165f81815260056020908152604080832094871680845294825291829020805460ff191686151590811790915591519182527f17307eab39ab6107e8899845ad3d59bd9653f200f220920489ca2b5937696c31910160405180910390a3505050565b6001600160a01b0383163b156108f657604051630a85bd0160e11b81526001600160a01b0384169063150b7a02906108179088908890879087906004016110b2565b6020604051808303815f875af1925050508015610851575060408051601f3d908101601f1916820190925261084e918101906110ee565b60015b6108b8573d80801561087e576040519150601f19603f3d011682016040523d82523d5f602084013e610883565b606091505b5080515f036108b057604051633250574960e11b81526001600160a01b03851660048201526024016103c3565b805160208201fd5b6001600160e01b03198116630a85bd0160e11b146108f457604051633250574960e11b81526001600160a01b03851660048201526024016103c3565b505b5050505050565b60605f61090983610b9a565b60010190505f8167ffffffffffffffff81111561092857610928610f0e565b6040519080825280601f01601f191660200182016040528015610952576020820181803683370190505b5090508181016020015b5f19016f181899199a1a9b1b9c1cb0b131b232b360811b600a86061a8153600a850494508461095c57509392505050565b80806109a157506001600160a01b03821615155b15610a62575f6109b0846105e2565b90506001600160a01b038316158015906109dc5750826001600160a01b0316816001600160a01b031614155b80156109ef57506109ed8184610578565b155b15610a185760405163a9fbf51f60e01b81526001600160a01b03841660048201526024016103c3565b8115610a605783856001600160a01b0316826001600160a01b03167f8c5be1e5ebec7d5bd14f71427d1e84f3dd0314c0f7b2291e5b200ac8c7c3b92560405160405180910390a45b505b50505f90815260046020526040902080546001600160a01b0319166001600160a01b0392909216919091179055565b5f828152600260205260408120546001600160a01b0390811690831615610abd57610abd818486610c71565b6001600160a01b03811615610af757610ad85f855f8061098d565b6001600160a01b0381165f90815260036020526040902080545f190190555b6001600160a01b03851615610b25576001600160a01b0385165f908152600360205260409020805460010190555b5f8481526002602052604080822080546001600160a01b0319166001600160a01b0389811691821790925591518793918516917fddf252ad1be2c89b69c2b068fc378daa952ba7f163c4a11628f55a4df523b3ef91a4949350505050565b610b8d8383610cd5565b610446335f8585856107d5565b5f8072184f03e93ff9f4daa797ed6e38ed64bf6a1f0160401b8310610bd85772184f03e93ff9f4daa797ed6e38ed64bf6a1f0160401b830492506040015b6d04ee2d6d415b85acef81000000008310610c04576d04ee2d6d415b85acef8100000000830492506020015b662386f26fc100008310610c2257662386f26fc10000830492506010015b6305f5e1008310610c3a576305f5e100830492506008015b6127108310610c4e57612710830492506004015b60648310610c60576064830492506002015b600a83106102d35760010192915050565b610c7c838383610d36565b610446576001600160a01b038316610caa57604051637e27328960e01b8152600481018290526024016103c3565b60405163177e802f60e01b81526001600160a01b0383166004820152602481018290526044016103c3565b6001600160a01b038216610cfe57604051633250574960e11b81525f60048201526024016103c3565b5f610d0a83835f610627565b90506001600160a01b03811615610446576040516339e3563760e11b81525f60048201526024016103c3565b5f6001600160a01b03831615801590610d925750826001600160a01b0316846001600160a01b03161480610d6f5750610d6f8484610578565b80610d9257505f828152600460205260409020546001600160a01b038481169116145b949350505050565b6001600160e01b0319811681146105df575f80fd5b5f60208284031215610dbf575f80fd5b813561057181610d9a565b5f5b83811015610de4578181015183820152602001610dcc565b50505f910152565b5f8151808452610e03816020860160208601610dca565b601f01601f19169290920160200192915050565b602081525f6105716020830184610dec565b5f60208284031215610e39575f80fd5b5035919050565b80356001600160a01b0381168114610e56575f80fd5b919050565b5f8060408385031215610e6c575f80fd5b610e7583610e40565b946020939093013593505050565b5f805f60608486031215610e95575f80fd5b610e9e84610e40565b9250610eac60208501610e40565b9150604084013590509250925092565b5f60208284031215610ecc575f80fd5b61057182610e40565b5f8060408385031215610ee6575f80fd5b610eef83610e40565b915060208301358015158114610f03575f80fd5b809150509250929050565b634e487b7160e01b5f52604160045260245ffd5b5f805f8060808587031215610f35575f80fd5b610f3e85610e40565b9350610f4c60208601610e40565b925060408501359150606085013567ffffffffffffffff80821115610f6f575f80fd5b818701915087601f830112610f82575f80fd5b813581811115610f9457610f94610f0e565b604051601f8201601f19908116603f01168101908382118183101715610fbc57610fbc610f0e565b816040528281528a6020848701011115610fd4575f80fd5b826020860160208301375f60208483010152809550505050505092959194509250565b5f8060408385031215611008575f80fd5b61101183610e40565b915061101f60208401610e40565b90509250929050565b600181811c9082168061103c57607f821691505b60208210810361105a57634e487b7160e01b5f52602260045260245ffd5b50919050565b5f6001820161107d57634e487b7160e01b5f52601160045260245ffd5b5060010190565b5f8351611095818460208801610dca565b8351908301906110a9818360208801610dca565b01949350505050565b6001600160a01b03858116825284166020820152604081018390526080606082018190525f906110e490830184610dec565b9695505050505050565b5f602082840312156110fe575f80fd5b815161057181610d9a56fea2646970667358221220cf559a3ff2fa2ff64716f332c54c4b027cade7a9537f45b900f84eccced0f75064736f6c63430008140033",
  "linkReferences": {},
  "deployedLinkReferences": {},
  "immutableReferences": {},
  "inputSourceName": "project/contracts/CultureProof.sol",
  "buildInfoId": "solc-0_8_20-f76a05ac86d8ff918977d2c07b8b7905f2d4fa3c"
}